:020000020000FC
:0200000011C02D
:100022001DC00FEF0DBF04E00EBFA0E0B1E00CE277
:1000320004B901E70CBD2A981DE61EBD0DB507FFE8
:10004200FDCF13E71EBD0DB507FFFDCF2A9A0EB5F2
:1000520010E114B901EE0CBD7894FFCF4EB54D936B
:1000620018950AB1006F0AB90BB10F70107F012BFE
:100072000BB95B9A0000000000005B980AB10F7098
:100082000AB908953F930AB1006F0AB90BB1017022
:10009200307F032B0BB9599A5B9A000000000000D5
:1000A2005B983F910F703295307F032B0BB9599AB1
:1000B2005B9A0000000000005B9859980AB10F702B
:1000C2000AB908951F930AB1006F0AB90BB1017002
:1000D200107F012B0BB95B9A0000000000005B98B7
:1000E2001F910F701295107F012B0BB95B9A0000C4
:1000F200000000005B980AB10F700AB908950AB1B6
:100102000F700AB959985A9A5B9A000009B1007F98
:10011200202F5B98000000005B9A000009B1007F6D
:100122000295202B5B985A980895E9DF2078E9F729
:100132000895222433243A94F1F72A94D9F70895A2
:100142000EE00AB9F6DF10E28CDFEFDF18E2BADF69
:10015200ECDF1FE0B7DFE9DF11E0B4DFE6DF16E036
:04016200B1DF08956C
:00000001FF
