:020000020000FC
:0200000011C02D
:100022000CC00FEF0DBF04E00EBFA0E0B1E010E185
:1000320014B911EE1CBD7894FFCF3EB53D93333712
:1000420019F0303771F018950CE204B911E71CBDB4
:100052000DB53EB52A9819E71EBD0DB507FFFDCFB8
:100062000895089508950AB1006F0AB90BB10F708F
:10007200107F012B0BB95B9A0000000000005B9817
:100082000AB10F700AB908953F930AB1006F0AB915
:100092000BB10170307F032B0BB9599A5B9A0000A8
:1000A200000000005B983F910F703295307F032B68
:1000B2000BB9599A5B9A0000000000005B985998AE
:1000C2000AB10F700AB908951F930AB1006F0AB9F5
:1000D2000BB10170107F012B0BB95B9A000000007D
:1000E20000005B981F910F701295107F012B0BB9C6
:1000F2005B9A0000000000005B980AB10F700AB919
:1001020008950AB10F700AB959985A9A5B9A000079
:1001120009B1007F202F5B98000000005B9A00006D
:1001220009B1007F0295202B5B985A980895E9DF68
:100132002078E9F7089533243A94F1F708952224B8
:1001420033243A94F1F72A94D9F708950EE00AB9C4
:10015200F6DF10E288DFEBDF18E2B6DFE8DF1FE050
:10016200B3DFE5DF11E0B0DFE2DF16E0ADDF0895D7
:00000001FF
