:020000020000FC
:1000000000C00FEF0DBF04E00EBF00C034D0AAD077
:1000100022D002D00ED0FFCF43E72A9824D027D099
:100020002A9A40E02A981FD022D01FD02A9AA5D021
:10003000089575E044E62A9816D019D02A9A40E02F
:100040002A9811D014D011D02A9A152F38D08AD0DE
:100050007A9581F70895239A259A229A01E70CBD93
:100060000DB50EB508954EBD08955EB508950DB554
:1000700007FFFDCF0895399A529A539A77D010E22C
:100080000DD070D018E23BD06DD01CE038D06AD0D3
:1000900011E035D067D016E032D008950AB1006F74
:1000A0000AB90BB10F70107F012B0BB95B9A0000DE
:1000B000000000005B980AB10F700AB908951F9301
:1000C0000AB1006F0AB90BB10170107F012B0BB997
:1000D000419A5B9A0000000000005B981F910F702E
:1000E0001295107F012B0BB9419A5B9A000000001A
:1000F00000005B9841980AB10F700AB908951F93E8
:100100000AB1006F0AB90BB10170107F012B0BB956
:100110005B9A0000000000005B981F910F70129521
:10012000107F012B0BB95B9A0000000000005B9868
:100130000AB10F700AB908950AB10F700AB941984F
:100140005A9A5B9A000009B1007F202F5B9800004B
:1001500000005B9A000009B1007F0295202B5B989C
:100160005A980895E9DF2078E9F708952224332486
:100170003A94F1F72A94D9F70895F8DFF7DFF6DF1C
:06018000F5DFF4DF089535
:00000001FF
