:020000020000FC
:0200000011C02D
:1000220047C00FEF0DBF04E00EBF00C054D0CAD0CE
:1000320027D007D013D0FFCF2A982AD02A9A40D0AF
:10004200FFCF43E72A9834D037D02A9A2A9840E043
:100052002FD032D02FD02A9AC0D0089575E044E62E
:100062002A9826D029D02A9A2A9840E021D024D052
:1000720021D02A9A152F53D0A5D07A9581F70895C9
:10008200239A259A229A01E70CBD0DB50EB5089563
:1000920070E0E0E0F6E0E70F24912EBD3EB50CD013
:1000A200C0E0D1E0C70F38837395273691F70895E2
:1000B2004EBD08955EB508950DB507FFFDCF0895B5
:1000C20070E0A0E0B1E0A70F1C91412F28D07395FA
:1000D2004636B9F70895399A529A539A77D010E270
:1000E2000DD070D018E23BD06DD01CE038D06AD071
:1000F20011E035D067D016E032D008950AB1006F12
:100102000AB90BB10F70107F012B0BB95B9A00007B
:10011200000000005B980AB10F700AB908951F939E
:100122000AB1006F0AB90BB10170107F012B0BB934
:10013200419A5B9A0000000000005B981F910F70CB
:100142001295107F012B0BB9419A5B9A00000000B7
:1001520000005B9841980AB10F700AB908951F9385
:100162000AB1006F0AB90BB10170107F012B0BB9F4
:100172005B9A0000000000005B981F910F701295BF
:10018200107F012B0BB95B9A0000000000005B9806
:100192000AB10F700AB908950AB10F700AB94198ED
:1001A2005A9A5B9A000009B1007F202F5B980000E9
:1001B20000005B9A000009B1007F0295202B5B983A
:1001C2005A980895E9DF2078E9F708952224332424
:1001D2003A94F1F72A94D9F70895F8DFF7DFF6DFBA
:0601E200F5DFF4DF0895D3
:00000001FF
