:020000020000FC
:100600004C6563747572610243616C696272616307
:10061000696F6E024C616D702E2A4F6E2A2D4F66E7
:1006200066024C616D702E4F6E2D2A4F66662A024F
:10063000496E6772657365204C616D62646120026A
:100640004C616D6264613A202002536920024E6F52
:100650002002566F6C76657220024C6579656E6477
:100660006F024578706F7274617220612050433F51
:1000000000C00FEF0DBF04E00EBFD2D0032F007C65
:100010000030F9F0003431F1003859F1003CA1F121
:1000200006B102FF06C003FF09C002FF0CC0802F0B
:10003000F7CF82FDF5CF8D7F3260E8CF83FDF0CF23
:100040008C7F3360E3CF84FDEBCF8B7F802F3460D8
:10005000DDCF032F0370003029F1013051F1023060
:1000600079F172C1032F0370003071F0013099F003
:100070006BC1032F03700030E1F00130D1F002308A
:10008000C1F0033021F160C132FD62C033FD60C0B8
:1000900034FD8EC059C132FD73C033FD71C034FDD3
:1000A000BFCF52C132FDBCCF33FD24C034FD80C070
:1000B0000EC032FD0CC033FD34C034FD79C044C1E4
:1000C00032FD18C033FDACCF34FD72C03DC1032FEB
:1000D0000C7F0060302F11E0F9D012E0F7D01DE264
:1000E000D5D0A0E0B3E0A5D010ECF0D0A4E0B3E010
:1000F000A0D096CF032F0C7F0160302F11E0E6D007
:1001000012E0E4D01DE2C2D0A4E0B3E092D010EC43
:10011000DDD035FFA1E1B3E035FDAAE0B3E089D041
:100120007FCF032F0C7F0260302F11E0CFD012E081
:10013000CDD0A4E0B3E07DD01DE2A8D010ECC6D0B5
:1001400035FFA1E1B3E035FDAAE0B3E072D068CF9E
:10015000032F0C7F0160302F11E0B8D012E0B6D031
:10016000A1E3B3E066D0A5E2B3E063D01FE28ED096
:100170001AE28CD0A7E2B3E05CD01AE287D050CF6D
:10018000032F0C7F0060302F11E0A0D012E09ED032
:10019000A1E3B3E04ED01AE279D0A5E2B3E049D0B2
:1001A0001AE274D01FE272D0A7E2B3E042D038CF97
:1001B00049D0BFD00AD026D03A983B983C98429A72
:1001C000439A449A389A40980895239A259A229AF5
:1001D000219801E70CBD0DB50EB5089550E0E0E0A3
:1001E000F6E0E50F64916EBD7EB508D0C0E0D1E0C9
:1001F000C50F78835395623091F708950DB507FFC9
:10020000FDCF0895B0E0ACE0B093C500A093C4006A
:1002100002E20093C00008E00093C10006E00093F2
:10022000C20008950091C00005FFFCCF1093C600E6
:1002300008951C911F932AD01F9111961C91123082
:10024000C9F70895399A529A539A77D010E20DD08F
:1002500070D01CE23BD06DD01FE038D06AD011E0E6
:1002600035D067D016E032D008950AB1006F0AB9D0
:100270000BB10F70107F012B0BB95B9A00000000CF
:1002800000005B980AB10F700AB908951F930AB174
:10029000006F0AB90BB10170107F012B0BB9419AA5
:1002A0005B9A0000000000005B981F910F70129590
:1002B000107F012B0BB9419A5B9A000000000000EF
:1002C0005B9841980AB10F700AB908951F930AB15B
:1002D000006F0AB90BB10170107F012B0BB95B9A4B
:1002E0000000000000005B981F910F701295107FB6
:1002F000012B0BB95B9A0000000000005B980AB16B
:100300000F700AB908950AB10F700AB941985A9A44
:100310005B9A000009B1007F602F5B98000000002D
:100320005B9A000009B1007F0295602B5B985A9898
:100330000895E9DF6078E9F70895222433243A9498
:08034000F1F72A94D9F70895A2
:00000001FF
