:020000020000FC
:0200000011C02D
:1000220021C00FEF0DBF04E00EBFA0E0B2E001E679
:100032000D9308E60D930FE60D9302E70D9301E68B
:100042000D93A0E0B2E05098519A549A00C003D0A8
:1000520000C07894FECF249A219A10EE1CBD0DB5F3
:100062000EB508953EB5333719F0343631F0189590
:1000720007E70EBDA0E0B2E0FACF0D910EBDF7CFBB
:1000820017D066D072EE55D038E05ED07AEE51D0FD
:1000920076EF4FD030E158D07BEF4BD032E054D0E6
:1000A20005E040D08D930A95E1F70CE60C93089594
:1000B2005C98599804E045BD02EE46BD0FD004E0BD
:1000C20045BD06EF06BD599A09D010D01FD07BEF6F
:1000D20030D03FE139D030E037D008955C9A5C9857
:1000E200A89BFCCFA89810E015BD089510E00CE085
:1000F2001093C5000093C40020E22093C00028E1C1
:100102002093C10026E42093C20008953BE103D06E
:100112007AEF0FD008951091C00015FFFCCF3093F5
:10012200C60008951091C00017FFFCCF8091C60051
:10013200089544E045BD76BD04D040E045BDA89891
:100142000895A89BFECF0895E6DF7AEFF2DF0895C7
:1001520030E4FADF30E0F8DF31E4F6DF30E0F4DFFC
:1001620032E4F2DF30E0F0DF33E4EEDF30E0ECDF08
:1001720034E4EADF30E0E8DF35E4E6DF30E0E4DF14
:100182000895222433243A94F1F72A94D9F7089552
:00000001FF
