:020000020000FC
:0200000011C02D
:1000220050C00FEF0DBF04E00EBF00C024D042D07D
:1000320041D036D048E638D039D034D029D023D078
:100042001AD02ED04FE630D031D02CD021D01BD0B8
:1000520012D026D04CE628D029D024D019D013D0E3
:100062000AD01ED041E620D021D01CD011D00BD016
:1000720002D000C0FFCF2498239A259A2298219A71
:1000820001E70CBD08957894603FE9F7F89408956C
:10009200249A239825982298219A10EE1CBD08953F
:1000A20029980895299A08954EBD08950DB507FF20
:1000B200FDCF0895222433243A94F1F72A94D9F7F4
:0800C20008953EB560EF1895AA
:00000001FF
