:020000020000FC
:0200000011C02D
:100022004DC00FEF0DBF04E00EBF00C026D035D08B
:1000320048E637D038D033D028D0789488951DD070
:100042002CD04FE62ED02FD02AD01FD0789488956E
:1000520014D023D04CE625D026D021D016D07894C7
:1000620088950BD01AD041E61CD01DD018D00DD0E7
:100072007894889502D000C0FFCF2498239A259ABD
:10008200229A219A01E70CBD0895249A2398259873
:100092002298219A10EE1CBD089529980895299A54
:1000A20008954EBD08950DB507FFFDCF0895222492
:1000B20033243A94F1F72A94D9F708953EB5189566
:00000001FF
