:020000020000FC
:060600006162636465669F
:0200000011C02D
:1000220026C00FEF0DBF04E00EBF00C030D0A5D038
:1000320005D029980CD0299A20D0FFDF239A259A3F
:10004200229A219801E70CBD0DB50EB5089570E016
:10005200A0E0B3E0A70F0C910EBD3EB50AD0C0E000
:10006200D1E0C70F38837395063691F708954EBDD8
:1000720008950DB507FFFDCF089570E0A0E0B1E04F
:10008200A70F0C9127D07395063611F708950EE04D
:100092000AB977D010E20DD070D01CE23BD06DD0FF
:1000A2001FE038D06AD011E035D067D016E032D0E8
:1000B20008950AB1006F0AB90BB10F70107F012BBE
:1000C2000BB95B9A0000000000005B980AB10F7048
:1000D2000AB908951F930AB1006F0AB90BB10170F2
:1000E200107F012B0BB9599A5B9A000000000000A7
:1000F2005B981F910F701295107F012B0BB9599AC3
:100102005B9A0000000000005B9859980AB10F70DA
:100112000AB908951F930AB1006F0AB90BB10170B1
:10012200107F012B0BB95B9A0000000000005B9866
:100132001F910F701295107F012B0BB95B9A000073
:10014200000000005B980AB10F700AB908950AB165
:100152000F700AB959985A9A5B9A000009B1007F48
:10016200202F5B98000000005B9A000009B1007F1D
:100172000295202B5B985A980895E9DF2078E9F7D9
:100182000895222433243A94F1F72A94D9F7089552
:00000001FF
