:020000020000FC
:0200000011C02D
:100022000DC00FEF0DBF04E00EBF10E114B910EECA
:100032001CBD09D07ED0789400C0FFCF3EB526D03B
:1000420078D0789418950EE00AB977D010E20DD0E6
:1000520070D01CE23BD06DD01FE038D06AD011E0E6
:1000620035D067D016E032D008950AB1006F0AB9D0
:100072000BB10F70107F012B0BB95B9A00000000CF
:1000820000005B980AB10F700AB908953F930AB154
:10009200006F0AB90BB10170307F032B0BB9599A6B
:1000A2005B9A0000000000005B983F910F70329550
:1000B200307F032B0BB9599A5B9A000000000000B5
:1000C2005B9859980AB10F700AB908951F930AB143
:1000D200006F0AB90BB10170107F012B0BB95B9A4B
:1000E2000000000000005B981F910F701295107FB6
:1000F200012B0BB95B9A0000000000005B980AB16B
:100102000F700AB908950AB10F700AB959985A9A2C
:100112005B9A000009B1007F202F5B98000000006D
:100122005B9A000009B1007F0295202B5B985A98D8
:100132000895E9DF2078E9F70895222433243A94D8
:08014200F1F72A94D9F70895A2
:00000001FF
