:020000020000FC
:1000000000C00FEF0DBF04E00EBF36D012E0E0E3FA
:100010001E0F56D013E0E8E41E0F52D0FFCFBFD022
:1000200016E44ED015E74CD01EE64AD013E648D071
:1000300019E646D01FE644D01EE642D011E640D075
:1000400010E23ED010EC5DD0AAD01AE439D01FE601
:1000500037D011E635D011E733D015E731D019E6A6
:100060002FD01EE62DD011E22BD011E229D011E2C3
:1000700027D011E225D0FFCF0CE00AB9399A93D0EE
:1000800010E20DD08CD018E23CD089D01CE039D0E1
:1000900086D011E036D083D016E033D008950AB16F
:1000A000006F0AB90BB10F70107F012B0BB95B9A6F
:1000B0000000000000005B980AB10F700AB90895B3
:1000C0001F930AB1006F0AB90BB10170107F012BA9
:1000D0000BB9419A5B9A0000000000005B981F91E9
:1000E0000F701295107F012B0BB9419A5B9A00009B
:1000F000000000005B9859980AB10F700AB94FD000
:1001000008951F930AB1006F0AB90BB10170107FF7
:10011000012B0BB95B9A0000000000005B981F9157
:100120000F701295107F012B0BB95B9A0000000035
:1001300000005B980AB10F700AB908950AB10F70F8
:100140000AB9419A5A9A5B9A000009B1007F202FA0
:100150005B98000000005B9A000009B1007F0295E7
:10016000202B5B9841985A9808950AB10F700AB9EC
:1001700041985A9A5B9A00000000000000000000BD
:1001800009B1007F202F5B98000000005B9A0000FF
:1001900009B1007F0295202B5B985A980895E5DFFE
:1001A0002078E9F70895222433243A94F1F72A9429
:0C01B000D9F708959BE09A95F1F70895A7
:00000001FF
